{
  "_format": "hh-sol-artifact-1",
  "contractName": "EducationVerification",
  "sourceName": "contracts/EducationVerification.sol",
  "abi": [
    {
      "inputs": [],
      "stateMutability": "nonpayable",
      "type": "constructor"
    },
    {
      "anonymous": false,
      "inputs": [
        {
          "indexed": true,
          "internalType": "bytes32",
          "name": "certHash",
          "type": "bytes32"
        },
        {
          "indexed": false,
          "internalType": "uint256",
          "name": "timestamp",
          "type": "uint256"
        }
      ],
      "name": "CertificateIssued",
      "type": "event"
    },
    {
      "anonymous": false,
      "inputs": [
        {
          "indexed": true,
          "internalType": "bytes32",
          "name": "certHash",
          "type": "bytes32"
        },
        {
          "indexed": false,
          "internalType": "uint256",
          "name": "timestamp",
          "type": "uint256"
        }
      ],
      "name": "CertificateRevoked",
      "type": "event"
    },
    {
      "inputs": [
        {
          "internalType": "bytes32",
          "name": "",
          "type": "bytes32"
        }
      ],
      "name": "certificates",
      "outputs": [
        {
          "internalType": "uint256",
          "name": "issuedAt",
          "type": "uint256"
        },
        {
          "internalType": "uint256",
          "name": "revokedAt",
          "type": "uint256"
        },
        {
          "internalType": "bool",
          "name": "exists",
          "type": "bool"
        }
      ],
      "stateMutability": "view",
      "type": "function"
    },
    {
      "inputs": [
        {
          "internalType": "string",
          "name": "certId",
          "type": "string"
        }
      ],
      "name": "issueCertificate",
      "outputs": [],
      "stateMutability": "nonpayable",
      "type": "function"
    },
    {
      "inputs": [
        {
          "internalType": "string",
          "name": "certId",
          "type": "string"
        }
      ],
      "name": "revokeCertificate",
      "outputs": [],
      "stateMutability": "nonpayable",
      "type": "function"
    },
    {
      "inputs": [],
      "name": "university",
      "outputs": [
        {
          "internalType": "address",
          "name": "",
          "type": "address"
        }
      ],
      "stateMutability": "view",
      "type": "function"
    },
    {
      "inputs": [
        {
          "internalType": "string",
          "name": "certId",
          "type": "string"
        }
      ],
      "name": "verifyCertificate",
      "outputs": [
        {
          "internalType": "bool",
          "name": "valid",
          "type": "bool"
        },
        {
          "internalType": "bool",
          "name": "revoked",
          "type": "bool"
        },
        {
          "internalType": "uint256",
          "name": "issuedAt",
          "type": "uint256"
        },
        {
          "internalType": "uint256",
          "name": "revokedAt",
          "type": "uint256"
        }
      ],
      "stateMutability": "view",
      "type": "function"
    }
  ],
  "bytecode": "0x608060405234801561001057600080fd5b50336000806101000a81548173ffffffffffffffffffffffffffffffffffffffff021916908373ffffffffffffffffffffffffffffffffffffffff160217905550610c83806100606000396000f3fe608060405234801561001057600080fd5b50600436106100575760003560e01c8063142e15421461005c578063742f0688146100785780638b23d875146100aa578063a90547a6146100dd578063ae12894e146100f9575b600080fd5b61007660048036038101906100719190610665565b610117565b005b610092600480360381019061008d91906106e8565b6102e6565b6040516100a193929190610749565b60405180910390f35b6100c460048036038101906100bf91906108c1565b61031d565b6040516100d4949392919061090a565b60405180910390f35b6100f760048036038101906100f29190610665565b610403565b005b6101016105c8565b60405161010e9190610990565b60405180910390f35b60008054906101000a900473ffffffffffffffffffffffffffffffffffffffff1673ffffffffffffffffffffffffffffffffffffffff163373ffffffffffffffffffffffffffffffffffffffff16146101a5576040517f08c379a000000000000000000000000000000000000000000000000000000000815260040161019c90610a08565b60405180910390fd5b600082826040516020016101ba929190610a58565b6040516020818303038152906040528051906020012090506001600082815260200190815260200160002060020160009054906101000a900460ff16610235576040517f08c379a000000000000000000000000000000000000000000000000000000000815260040161022c90610abd565b60405180910390fd5b600060016000838152602001908152602001600020600101541461028e576040517f08c379a000000000000000000000000000000000000000000000000000000000815260040161028590610b29565b60405180910390fd5b426001600083815260200190815260200160002060010181905550807fba2ff7aceccd1742d00e386f05d483c89cbb4e8ebf02234c436df1ec854261fd426040516102d99190610b49565b60405180910390a2505050565b60016020528060005260406000206000915090508060000154908060010154908060020160009054906101000a900460ff16905083565b6000806000806000856040516020016103369190610bca565b60405160208183030381529060405280519060200120905060006001600083815260200190815260200160002060405180606001604052908160008201548152602001600182015481526020016002820160009054906101000a900460ff161515151581525050905080604001516103bd57600080600080955095509550955050506103fc565b60008160200151146103e6576000600182600001518360200151955095509550955050506103fc565b6001600082600001516000955095509550955050505b9193509193565b60008054906101000a900473ffffffffffffffffffffffffffffffffffffffff1673ffffffffffffffffffffffffffffffffffffffff163373ffffffffffffffffffffffffffffffffffffffff1614610491576040517f08c379a000000000000000000000000000000000000000000000000000000000815260040161048890610a08565b60405180910390fd5b600082826040516020016104a6929190610a58565b6040516020818303038152906040528051906020012090506001600082815260200190815260200160002060020160009054906101000a900460ff1615610522576040517f08c379a000000000000000000000000000000000000000000000000000000000815260040161051990610c2d565b60405180910390fd5b6040518060600160405280428152602001600081526020016001151581525060016000838152602001908152602001600020600082015181600001556020820151816001015560408201518160020160006101000a81548160ff021916908315150217905550905050807fb373023449b41c09a963fbc6f475bf6574114ed41b6a41eb8ee5ac78301ff0ff426040516105bb9190610b49565b60405180910390a2505050565b60008054906101000a900473ffffffffffffffffffffffffffffffffffffffff1681565b6000604051905090565b600080fd5b600080fd5b600080fd5b600080fd5b600080fd5b60008083601f84011261062557610624610600565b5b8235905067ffffffffffffffff81111561064257610641610605565b5b60208301915083600182028301111561065e5761065d61060a565b5b9250929050565b6000806020838503121561067c5761067b6105f6565b5b600083013567ffffffffffffffff81111561069a576106996105fb565b5b6106a68582860161060f565b92509250509250929050565b6000819050919050565b6106c5816106b2565b81146106d057600080fd5b50565b6000813590506106e2816106bc565b92915050565b6000602082840312156106fe576106fd6105f6565b5b600061070c848285016106d3565b91505092915050565b6000819050919050565b61072881610715565b82525050565b60008115159050919050565b6107438161072e565b82525050565b600060608201905061075e600083018661071f565b61076b602083018561071f565b610778604083018461073a565b949350505050565b600080fd5b6000601f19601f8301169050919050565b7f4e487b7100000000000000000000000000000000000000000000000000000000600052604160045260246000fd5b6107ce82610785565b810181811067ffffffffffffffff821117156107ed576107ec610796565b5b80604052505050565b60006108006105ec565b905061080c82826107c5565b919050565b600067ffffffffffffffff82111561082c5761082b610796565b5b61083582610785565b9050602081019050919050565b82818337600083830152505050565b600061086461085f84610811565b6107f6565b9050828152602081018484840111156108805761087f610780565b5b61088b848285610842565b509392505050565b600082601f8301126108a8576108a7610600565b5b81356108b8848260208601610851565b91505092915050565b6000602082840312156108d7576108d66105f6565b5b600082013567ffffffffffffffff8111156108f5576108f46105fb565b5b61090184828501610893565b91505092915050565b600060808201905061091f600083018761073a565b61092c602083018661073a565b610939604083018561071f565b610946606083018461071f565b95945050505050565b600073ffffffffffffffffffffffffffffffffffffffff82169050919050565b600061097a8261094f565b9050919050565b61098a8161096f565b82525050565b60006020820190506109a56000830184610981565b92915050565b600082825260208201905092915050565b7f4e6f7420617574686f72697a6564000000000000000000000000000000000000600082015250565b60006109f2600e836109ab565b91506109fd826109bc565b602082019050919050565b60006020820190508181036000830152610a21816109e5565b9050919050565b600081905092915050565b6000610a3f8385610a28565b9350610a4c838584610842565b82840190509392505050565b6000610a65828486610a33565b91508190509392505050565b7f4e6f742069737375656400000000000000000000000000000000000000000000600082015250565b6000610aa7600a836109ab565b9150610ab282610a71565b602082019050919050565b60006020820190508181036000830152610ad681610a9a565b9050919050565b7f416c7265616479207265766f6b65640000000000000000000000000000000000600082015250565b6000610b13600f836109ab565b9150610b1e82610add565b602082019050919050565b60006020820190508181036000830152610b4281610b06565b9050919050565b6000602082019050610b5e600083018461071f565b92915050565b600081519050919050565b60005b83811015610b8d578082015181840152602081019050610b72565b60008484015250505050565b6000610ba482610b64565b610bae8185610a28565b9350610bbe818560208601610b6f565b80840191505092915050565b6000610bd68284610b99565b915081905092915050565b7f416c726561647920697373756564000000000000000000000000000000000000600082015250565b6000610c17600e836109ab565b9150610c2282610be1565b602082019050919050565b60006020820190508181036000830152610c4681610c0a565b905091905056fea26469706673582212208e3694cc1234827262f742eae6c9c8c6aabfbf909bbe8e560f3a71bf83e0e54764736f6c63430008140033",
  "linkReferences": {},
  "deployedLinkReferences": {}
}