{
  "_format": "hh-sol-artifact-1",
  "contractName": "EducationVerification",
  "sourceName": "contracts/EducationVerification.sol",
  "abi": [
    {
      "inputs": [],
      "stateMutability": "nonpayable",
      "type": "constructor"
    },
    {
      "inputs": [],
      "name": "revocationMerkleRoot",
      "outputs": [
        {
          "internalType": "bytes32",
          "name": "",
          "type": "bytes32"
        }
      ],
      "stateMutability": "view",
      "type": "function"
    },
    {
      "inputs": [
        {
          "internalType": "bytes32",
          "name": "newRoot",
          "type": "bytes32"
        }
      ],
      "name": "revokeCertificate",
      "outputs": [],
      "stateMutability": "nonpayable",
      "type": "function"
    },
    {
      "inputs": [],
      "name": "university",
      "outputs": [
        {
          "internalType": "address",
          "name": "",
          "type": "address"
        }
      ],
      "stateMutability": "view",
      "type": "function"
    },
    {
      "inputs": [
        {
          "internalType": "bytes32",
          "name": "leaf",
          "type": "bytes32"
        },
        {
          "internalType": "bytes32[]",
          "name": "proof",
          "type": "bytes32[]"
        }
      ],
      "name": "verify",
      "outputs": [
        {
          "internalType": "bool",
          "name": "",
          "type": "bool"
        }
      ],
      "stateMutability": "view",
      "type": "function"
    }
  ],
  "bytecode": "0x608060405234801561001057600080fd5b50336000806101000a81548173ffffffffffffffffffffffffffffffffffffffff021916908373ffffffffffffffffffffffffffffffffffffffff16021790555061060a806100606000396000f3fe608060405234801561001057600080fd5b506004361061004c5760003560e01c80636df4d241146100515780638f3f3e4414610081578063ae12894e1461009f578063c6cbc52a146100bd575b600080fd5b61006b60048036038101906100669190610311565b6100d9565b604051610078919061038c565b60405180910390f35b6100896101aa565b60405161009691906103b6565b60405180910390f35b6100a76101b0565b6040516100b49190610412565b60405180910390f35b6100d760048036038101906100d2919061042d565b6101d4565b005b60008083839050036100f157600154841490506101a3565b600084905060005b848490508110156101995760008585838181106101195761011861045a565b5b90506020020135905080831161015957828160405160200161013c9291906104aa565b604051602081830303815290604052805190602001209250610185565b808360405160200161016c9291906104aa565b6040516020818303038152906040528051906020012092505b5080806101919061050f565b9150506100f9565b5060015481149150505b9392505050565b60015481565b60008054906101000a900473ffffffffffffffffffffffffffffffffffffffff1681565b60008054906101000a900473ffffffffffffffffffffffffffffffffffffffff1673ffffffffffffffffffffffffffffffffffffffff163373ffffffffffffffffffffffffffffffffffffffff1614610262576040517f08c379a0000000000000000000000000000000000000000000000000000000008152600401610259906105b4565b60405180910390fd5b8060018190555050565b600080fd5b600080fd5b6000819050919050565b61028981610276565b811461029457600080fd5b50565b6000813590506102a681610280565b92915050565b600080fd5b600080fd5b600080fd5b60008083601f8401126102d1576102d06102ac565b5b8235905067ffffffffffffffff8111156102ee576102ed6102b1565b5b60208301915083602082028301111561030a576103096102b6565b5b9250929050565b60008060006040848603121561032a5761032961026c565b5b600061033886828701610297565b935050602084013567ffffffffffffffff81111561035957610358610271565b5b610365868287016102bb565b92509250509250925092565b60008115159050919050565b61038681610371565b82525050565b60006020820190506103a1600083018461037d565b92915050565b6103b081610276565b82525050565b60006020820190506103cb60008301846103a7565b92915050565b600073ffffffffffffffffffffffffffffffffffffffff82169050919050565b60006103fc826103d1565b9050919050565b61040c816103f1565b82525050565b60006020820190506104276000830184610403565b92915050565b6000602082840312156104435761044261026c565b5b600061045184828501610297565b91505092915050565b7f4e487b7100000000000000000000000000000000000000000000000000000000600052603260045260246000fd5b6000819050919050565b6104a461049f82610276565b610489565b82525050565b60006104b68285610493565b6020820191506104c68284610493565b6020820191508190509392505050565b7f4e487b7100000000000000000000000000000000000000000000000000000000600052601160045260246000fd5b6000819050919050565b600061051a82610505565b91507fffffffffffffffffffffffffffffffffffffffffffffffffffffffffffffffff820361054c5761054b6104d6565b5b600182019050919050565b600082825260208201905092915050565b7f4e6f7420617574686f72697a6564000000000000000000000000000000000000600082015250565b600061059e600e83610557565b91506105a982610568565b602082019050919050565b600060208201905081810360008301526105cd81610591565b905091905056fea2646970667358221220ef4db5856e642e0d0f3f622a2c68a5ff0b13e08dd3aebac93e5f9f6b08548e8c64736f6c63430008140033",
  "linkReferences": {},
  "deployedLinkReferences": {}
}